{
  "contractName": "CourseMarketplace",
  "abi": [
    {
      "inputs": [],
      "stateMutability": "nonpayable",
      "type": "constructor"
    },
    {
      "inputs": [],
      "name": "CallerNotOwner",
      "type": "error"
    },
    {
      "inputs": [],
      "name": "CourseHasOwner",
      "type": "error"
    },
    {
      "inputs": [],
      "name": "CourseIsNotCreated",
      "type": "error"
    },
    {
      "inputs": [],
      "name": "InvalidState",
      "type": "error"
    },
    {
      "inputs": [],
      "name": "SenderIsNotCourseOwner",
      "type": "error"
    },
    {
      "inputs": [
        {
          "internalType": "bytes16",
          "name": "courseId",
          "type": "bytes16"
        },
        {
          "internalType": "bytes32",
          "name": "proof",
          "type": "bytes32"
        }
      ],
      "name": "purchaseCourse",
      "outputs": [],
      "stateMutability": "payable",
      "type": "function",
      "payable": true
    },
    {
      "inputs": [
        {
          "internalType": "bytes16",
          "name": "courseId",
          "type": "bytes16"
        }
      ],
      "name": "dropCourse",
      "outputs": [],
      "stateMutability": "payable",
      "type": "function",
      "payable": true
    },
    {
      "inputs": [
        {
          "internalType": "bytes32",
          "name": "courseHash",
          "type": "bytes32"
        }
      ],
      "name": "repurchaseCourse",
      "outputs": [],
      "stateMutability": "payable",
      "type": "function",
      "payable": true
    },
    {
      "inputs": [
        {
          "internalType": "bytes32",
          "name": "courseHash",
          "type": "bytes32"
        }
      ],
      "name": "activateCourse",
      "outputs": [],
      "stateMutability": "nonpayable",
      "type": "function"
    },
    {
      "inputs": [
        {
          "internalType": "bytes32",
          "name": "courseHash",
          "type": "bytes32"
        }
      ],
      "name": "deactivateCourse",
      "outputs": [],
      "stateMutability": "nonpayable",
      "type": "function"
    },
    {
      "inputs": [
        {
          "internalType": "address",
          "name": "newOwner",
          "type": "address"
        }
      ],
      "name": "transferOwnership",
      "outputs": [],
      "stateMutability": "nonpayable",
      "type": "function"
    },
    {
      "inputs": [],
      "name": "getCourseCount",
      "outputs": [
        {
          "internalType": "uint256",
          "name": "",
          "type": "uint256"
        }
      ],
      "stateMutability": "view",
      "type": "function",
      "constant": true
    },
    {
      "inputs": [
        {
          "internalType": "uint256",
          "name": "index",
          "type": "uint256"
        }
      ],
      "name": "getCourseHashByIndex",
      "outputs": [
        {
          "internalType": "bytes32",
          "name": "",
          "type": "bytes32"
        }
      ],
      "stateMutability": "view",
      "type": "function",
      "constant": true
    },
    {
      "inputs": [
        {
          "internalType": "bytes32",
          "name": "courseHash",
          "type": "bytes32"
        }
      ],
      "name": "getCourseByHash",
      "outputs": [
        {
          "components": [
            {
              "internalType": "uint256",
              "name": "id",
              "type": "uint256"
            },
            {
              "internalType": "uint256",
              "name": "price",
              "type": "uint256"
            },
            {
              "internalType": "bytes32",
              "name": "proof",
              "type": "bytes32"
            },
            {
              "internalType": "address",
              "name": "owner",
              "type": "address"
            },
            {
              "internalType": "enum CourseMarketplace.State",
              "name": "state",
              "type": "uint8"
            }
          ],
          "internalType": "struct CourseMarketplace.Course",
          "name": "",
          "type": "tuple"
        }
      ],
      "stateMutability": "view",
      "type": "function",
      "constant": true
    },
    {
      "inputs": [],
      "name": "getContractOwner",
      "outputs": [
        {
          "internalType": "address",
          "name": "",
          "type": "address"
        }
      ],
      "stateMutability": "view",
      "type": "function",
      "constant": true
    }
  ],
  "bytecode": "0x608060405234801561001057600080fd5b506100203361002560201b60201c565b610069565b80600360006101000a81548173ffffffffffffffffffffffffffffffffffffffff021916908373ffffffffffffffffffffffffffffffffffffffff16021790555050565b6112ca806100786000396000f3fe6080604052600436106100915760003560e01c8063935d7e6d11610059578063935d7e6d1461015f57806396cfda0614610188578063d36d8a92146101b3578063d76821cb146101f0578063f2fde38b1461020c57610091565b80633926257214610096578063442890d5146100bf57806357c40ca3146100ea5780636136e1eb1461010657806362e4e6ac14610122575b600080fd5b3480156100a257600080fd5b506100bd60048036038101906100b89190610d15565b610235565b005b3480156100cb57600080fd5b506100d4610396565b6040516100e19190610d83565b60405180910390f35b61010460048036038101906100ff9190610df6565b6103c0565b005b610120600480360381019061011b9190610d15565b6104cb565b005b34801561012e57600080fd5b5061014960048036038101906101449190610d15565b610607565b6040516101569190610f39565b60405180910390f35b34801561016b57600080fd5b5061018660048036038101906101819190610d15565b6106e2565b005b34801561019457600080fd5b5061019d610922565b6040516101aa9190610f63565b60405180910390f35b3480156101bf57600080fd5b506101da60048036038101906101d59190610faa565b61092c565b6040516101e79190610fe6565b60405180910390f35b61020a60048036038101906102059190611001565b610949565b005b34801561021857600080fd5b50610233600480360381019061022e919061106d565b610ae9565b005b61023d610396565b73ffffffffffffffffffffffffffffffffffffffff163373ffffffffffffffffffffffffffffffffffffffff16146102a1576040517f5cd8319200000000000000000000000000000000000000000000000000000000815260040160405180910390fd5b6102aa81610b61565b6102e0576040517f4db0c48300000000000000000000000000000000000000000000000000000000815260040160405180910390fd5b600080600083815260200190815260200160002090506000600281111561030a57610309610e5a565b5b8160030160149054906101000a900460ff16600281111561032e5761032d610e5a565b5b14610365576040517fbaf3f0f700000000000000000000000000000000000000000000000000000000815260040160405180910390fd5b60018160030160146101000a81548160ff0219169083600281111561038d5761038c610e5a565b5b02179055505050565b6000600360009054906101000a900473ffffffffffffffffffffffffffffffffffffffff16905090565b600081336040516020016103d5929190611103565b6040516020818303038152906040528051906020012090506103f681610bcf565b61042c576040517fb0fc2d9700000000000000000000000000000000000000000000000000000000815260040160405180910390fd5b6000600260008154809291906104419061115e565b9190505590506001600082815260200190815260200160002060009055600080838152602001908152602001600020600080820160009055600182016000905560028201600090556003820160006101000a81549073ffffffffffffffffffffffffffffffffffffffff02191690556003820160146101000a81549060ff02191690555050505050565b6104d481610b61565b61050a576040517f4db0c48300000000000000000000000000000000000000000000000000000000815260040160405180910390fd5b61051381610bcf565b610549576040517fcce31cc400000000000000000000000000000000000000000000000000000000815260040160405180910390fd5b6000806000838152602001908152602001600020905060028081111561057257610571610e5a565b5b8160030160149054906101000a900460ff16600281111561059657610595610e5a565b5b146105cd576040517fbaf3f0f700000000000000000000000000000000000000000000000000000000815260040160405180910390fd5b60008160030160146101000a81548160ff021916908360028111156105f5576105f4610e5a565b5b02179055503481600101819055505050565b61060f610c80565b6000808381526020019081526020016000206040518060a00160405290816000820154815260200160018201548152602001600282015481526020016003820160009054906101000a900473ffffffffffffffffffffffffffffffffffffffff1673ffffffffffffffffffffffffffffffffffffffff1673ffffffffffffffffffffffffffffffffffffffff1681526020016003820160149054906101000a900460ff1660028111156106c5576106c4610e5a565b5b60028111156106d7576106d6610e5a565b5b815250509050919050565b6106ea610396565b73ffffffffffffffffffffffffffffffffffffffff163373ffffffffffffffffffffffffffffffffffffffff161461074e576040517f5cd8319200000000000000000000000000000000000000000000000000000000815260040160405180910390fd5b61075781610b61565b61078d576040517f4db0c48300000000000000000000000000000000000000000000000000000000815260040160405180910390fd5b60008060008381526020019081526020016000209050600060028111156107b7576107b6610e5a565b5b8160030160149054906101000a900460ff1660028111156107db576107da610e5a565b5b14610812576040517fbaf3f0f700000000000000000000000000000000000000000000000000000000815260040160405180910390fd5b60008160030160009054906101000a900473ffffffffffffffffffffffffffffffffffffffff1673ffffffffffffffffffffffffffffffffffffffff168260010154604051610860906111b9565b60006040518083038185875af1925050503d806000811461089d576040519150601f19603f3d011682016040523d82523d6000602084013e6108a2565b606091505b50509050806108e6576040517f08c379a00000000000000000000000000000000000000000000000000000000081526004016108dd9061122b565b60405180910390fd5b60028260030160146101000a81548160ff0219169083600281111561090e5761090d610e5a565b5b021790555060008260010181905550505050565b6000600254905090565b600060016000838152602001908152602001600020549050919050565b6000823360405160200161095e929190611103565b60405160208183030381529060405280519060200120905061097f81610bcf565b156109b6576040517fb0fc2d9700000000000000000000000000000000000000000000000000000000815260040160405180910390fd5b6000600260008154809291906109cb9061124b565b9190505590508160016000838152602001908152602001600020819055506040518060a001604052808281526020013481526020018481526020013373ffffffffffffffffffffffffffffffffffffffff16815260200160006002811115610a3657610a35610e5a565b5b81525060008084815260200190815260200160002060008201518160000155602082015181600101556040820151816002015560608201518160030160006101000a81548173ffffffffffffffffffffffffffffffffffffffff021916908373ffffffffffffffffffffffffffffffffffffffff16021790555060808201518160030160146101000a81548160ff02191690836002811115610adb57610ada610e5a565b5b021790555090505050505050565b610af1610396565b73ffffffffffffffffffffffffffffffffffffffff163373ffffffffffffffffffffffffffffffffffffffff1614610b55576040517f5cd8319200000000000000000000000000000000000000000000000000000000815260040160405180910390fd5b610b5e81610c3c565b50565b60008073ffffffffffffffffffffffffffffffffffffffff1660008084815260200190815260200160002060030160009054906101000a900473ffffffffffffffffffffffffffffffffffffffff1673ffffffffffffffffffffffffffffffffffffffff1614159050919050565b60003373ffffffffffffffffffffffffffffffffffffffff1660008084815260200190815260200160002060030160009054906101000a900473ffffffffffffffffffffffffffffffffffffffff1673ffffffffffffffffffffffffffffffffffffffff16149050919050565b80600360006101000a81548173ffffffffffffffffffffffffffffffffffffffff021916908373ffffffffffffffffffffffffffffffffffffffff16021790555050565b6040518060a00160405280600081526020016000815260200160008019168152602001600073ffffffffffffffffffffffffffffffffffffffff16815260200160006002811115610cd457610cd3610e5a565b5b81525090565b600080fd5b6000819050919050565b610cf281610cdf565b8114610cfd57600080fd5b50565b600081359050610d0f81610ce9565b92915050565b600060208284031215610d2b57610d2a610cda565b5b6000610d3984828501610d00565b91505092915050565b600073ffffffffffffffffffffffffffffffffffffffff82169050919050565b6000610d6d82610d42565b9050919050565b610d7d81610d62565b82525050565b6000602082019050610d986000830184610d74565b92915050565b60007fffffffffffffffffffffffffffffffff0000000000000000000000000000000082169050919050565b610dd381610d9e565b8114610dde57600080fd5b50565b600081359050610df081610dca565b92915050565b600060208284031215610e0c57610e0b610cda565b5b6000610e1a84828501610de1565b91505092915050565b6000819050919050565b610e3681610e23565b82525050565b610e4581610cdf565b82525050565b610e5481610d62565b82525050565b7f4e487b7100000000000000000000000000000000000000000000000000000000600052602160045260246000fd5b60038110610e9a57610e99610e5a565b5b50565b6000819050610eab82610e89565b919050565b6000610ebb82610e9d565b9050919050565b610ecb81610eb0565b82525050565b60a082016000820151610ee76000850182610e2d565b506020820151610efa6020850182610e2d565b506040820151610f0d6040850182610e3c565b506060820151610f206060850182610e4b565b506080820151610f336080850182610ec2565b50505050565b600060a082019050610f4e6000830184610ed1565b92915050565b610f5d81610e23565b82525050565b6000602082019050610f786000830184610f54565b92915050565b610f8781610e23565b8114610f9257600080fd5b50565b600081359050610fa481610f7e565b92915050565b600060208284031215610fc057610fbf610cda565b5b6000610fce84828501610f95565b91505092915050565b610fe081610cdf565b82525050565b6000602082019050610ffb6000830184610fd7565b92915050565b6000806040838503121561101857611017610cda565b5b600061102685828601610de1565b925050602061103785828601610d00565b9150509250929050565b61104a81610d62565b811461105557600080fd5b50565b60008135905061106781611041565b92915050565b60006020828403121561108357611082610cda565b5b600061109184828501611058565b91505092915050565b6000819050919050565b6110b56110b082610d9e565b61109a565b82525050565b60008160601b9050919050565b60006110d3826110bb565b9050919050565b60006110e5826110c8565b9050919050565b6110fd6110f882610d62565b6110da565b82525050565b600061110f82856110a4565b60108201915061111f82846110ec565b6014820191508190509392505050565b7f4e487b7100000000000000000000000000000000000000000000000000000000600052601160045260246000fd5b600061116982610e23565b9150600082141561117d5761117c61112f565b5b600182039050919050565b600081905092915050565b50565b60006111a3600083611188565b91506111ae82611193565b600082019050919050565b60006111c482611196565b9150819050919050565b600082825260208201905092915050565b7f5472616e73666572206661696c65642100000000000000000000000000000000600082015250565b60006112156010836111ce565b9150611220826111df565b602082019050919050565b6000602082019050818103600083015261124481611208565b9050919050565b600061125682610e23565b91507fffffffffffffffffffffffffffffffffffffffffffffffffffffffffffffffff8214156112895761128861112f565b5b60018201905091905056fea2646970667358221220496de9d22a01bd0720deac0f6bff6093b6b4065b683651ca5d02fc6bb57e3e8164736f6c634300080a0033",
  "immutableReferences": {},
  "source": "// SPDX-License-Identifier: MIT\npragma solidity >=0.4.22 <0.9.0;\n\ncontract CourseMarketplace{\n     enum State{\n         Purchased,\n         Activated,\n         DeaActivated\n     }\n\n     //struct is like obj in JS\n     struct Course{\n         uint id; //uinit= 32byte\n        uint price; //uinit= 32byte\n        bytes32 proof;//unique string of the course purchaser\n        address owner; //20 bytes\n        State state;//1 byte\n     }\n\n     //mapping of courseHash to Course data\n     mapping(bytes32 => Course) private ownedCourses;\n     //mapping of courseId to courseHash\n     mapping(uint => bytes32) private ownedCourseHashById;\n\n     uint private totalOwnedCourses ;\n\n     address payable owner;\n\n    /// Course already has an Owner!\n    error CourseHasOwner();\n    /// Only owner can call!\n    error CallerNotOwner();\n    /// Course in not created yet!\n    error CourseIsNotCreated();\n    /// Course in not valid!\n    error InvalidState();\n    /// Sender is not course owner!\n    error SenderIsNotCourseOwner();\n\n     constructor(){\n         //setting for the owner of the contract At Deploy Time\n         setContractOwner(msg.sender);\n     }\n\n     modifier onlyOwner{\n         if(msg.sender != getContractOwner()){\n             revert CallerNotOwner(); \n         }\n         _;\n     }\n\n     //abi and msg are two objects globally available in the Contract\n     function purchaseCourse(bytes16 courseId, bytes32 proof) external payable { \n\n         bytes32 courseHash = keccak256(abi.encodePacked(courseId, msg.sender));\n         if(hasCourseOwnership(courseHash)){\n             revert CourseHasOwner();\n         }\n         uint id = totalOwnedCourses++;\n         ownedCourseHashById[id] = courseHash;\n         ownedCourses[courseHash] = Course({\n             id: id,\n             price: msg.value,\n             proof: proof,\n             owner: msg.sender,\n             state: State.Purchased\n         });\n     }\n     function dropCourse(bytes16 courseId) external payable { \n         bytes32 courseHash = keccak256(abi.encodePacked(courseId, msg.sender));\n         if(!hasCourseOwnership(courseHash)){\n             revert CourseHasOwner();\n         }\n         uint id =  totalOwnedCourses--;\n         delete ownedCourseHashById[id];\n         delete ownedCourses[courseHash];\n     }\n     function repurchaseCourse(bytes32 courseHash) external payable { \n         if(!isCourseCreated(courseHash)){\n             revert CourseIsNotCreated();\n         }\n         if(!hasCourseOwnership(courseHash)){\n             revert SenderIsNotCourseOwner();\n         }\n\n        Course storage course = ownedCourses[courseHash];\n\n        if(course.state != State.DeaActivated){\n            revert InvalidState();\n        }\n\n        course.state = State.Purchased;\n        course.price = msg.value;\n     }\n     function activateCourse(bytes32 courseHash) external onlyOwner {\n         if(!isCourseCreated(courseHash)){\n             revert CourseIsNotCreated(); \n         }\n        Course storage course = ownedCourses[courseHash];\n         if(course.state != State.Purchased){\n            revert InvalidState(); \n         }\n        course.state = State.Activated;\n\n     }\n     function deactivateCourse(bytes32 courseHash) external onlyOwner {\n         if(!isCourseCreated(courseHash)){\n             revert CourseIsNotCreated();\n         }\n\n         Course storage course = ownedCourses[courseHash];\n\n         if(course.state != State.Purchased){\n             revert InvalidState();\n         }\n\n         (bool success, ) = course.owner.call{value: course.price }(\"\");\n         require(success, \"Transfer failed!\");\n\n         course.state = State.DeaActivated;\n         course.price = 0;\n     }\n     function transferOwnership(address newOwner) external onlyOwner {\n         setContractOwner(newOwner);\n     }\n     function getCourseCount() external view returns(uint) {\n         return totalOwnedCourses;\n     }\n     function getCourseHashByIndex(uint index) external view returns(bytes32) {\n         return ownedCourseHashById[index];\n     }\n     //whenever specify struct, specify memory\n     function getCourseByHash(bytes32 courseHash) external view returns(Course memory) {\n         return ownedCourses[courseHash];\n     }\n     function getContractOwner() view public returns(address) {\n         return owner;\n     }\n     function setContractOwner(address newOwner) private {\n         owner = payable(newOwner);\n     }\n     function hasCourseOwnership(bytes32 courseHash) private view returns(bool){\n         return ownedCourses[courseHash].owner == msg.sender;\n     }\n    function isCourseCreated(bytes32 courseHash) private view returns(bool) {\n         return ownedCourses[courseHash].owner  != 0x0000000000000000000000000000000000000000;\n     }\n}\n\n//course id = 10 ni Ascii text\n         // 0x00000000000000000000000000003130 - couseId in hexaformad\n         // 0x5B38Da6a701c568545dCfcB03FcB875f56beddC4 //40bytes \n         //000000000000000000000000000031305B38Da6a701c568545dCfcB03FcB875f56beddC4 \n         //-> //0xc4eaa3558504e2baa2669001b43f359b8418b44a4477ff417b4b007d7cc86e37\n         //     0xc4eaa3558504e2baa2669001b43f359b8418b44a4477ff417b4b007d7cc86e37",
  "sourcePath": "/Users/qwertyexperts/QwertyProjects/tech-courses-marketplace-eth/contracts/CourseMarketplace.sol",
  "compiler": {
    "name": "solc",
    "version": "0.8.10+commit.fc410830.Emscripten.clang"
  },
  "schemaVersion": "3.4.3",
  "updatedAt": "2022-06-25T08:29:33.926Z",
  "networkType": "ethereum",
  "devdoc": {
    "kind": "dev",
    "methods": {},
    "version": 1
  },
  "userdoc": {
    "errors": {
      "CallerNotOwner()": [
        {
          "notice": "Only owner can call!"
        }
      ],
      "CourseHasOwner()": [
        {
          "notice": "Course already has an Owner!"
        }
      ],
      "CourseIsNotCreated()": [
        {
          "notice": "Course in not created yet!"
        }
      ],
      "InvalidState()": [
        {
          "notice": "Course in not valid!"
        }
      ],
      "SenderIsNotCourseOwner()": [
        {
          "notice": "Sender is not course owner!"
        }
      ]
    },
    "kind": "user",
    "methods": {},
    "version": 1
  }
}