{
  "contractName": "CourseMarketplace",
  "abi": [
    {
      "inputs": [],
      "stateMutability": "nonpayable",
      "type": "constructor"
    },
    {
      "inputs": [],
      "name": "CallerNotOwner",
      "type": "error"
    },
    {
      "inputs": [],
      "name": "CourseHasOwner",
      "type": "error"
    },
    {
      "inputs": [
        {
          "internalType": "bytes16",
          "name": "courseId",
          "type": "bytes16"
        },
        {
          "internalType": "bytes32",
          "name": "proof",
          "type": "bytes32"
        }
      ],
      "name": "purchaseCourse",
      "outputs": [],
      "stateMutability": "payable",
      "type": "function"
    },
    {
      "inputs": [
        {
          "internalType": "address",
          "name": "newOwner",
          "type": "address"
        }
      ],
      "name": "transferOwnership",
      "outputs": [],
      "stateMutability": "nonpayable",
      "type": "function"
    },
    {
      "inputs": [],
      "name": "getCourseCount",
      "outputs": [
        {
          "internalType": "uint256",
          "name": "",
          "type": "uint256"
        }
      ],
      "stateMutability": "view",
      "type": "function"
    },
    {
      "inputs": [
        {
          "internalType": "uint256",
          "name": "index",
          "type": "uint256"
        }
      ],
      "name": "getCourseHashByIndex",
      "outputs": [
        {
          "internalType": "bytes32",
          "name": "",
          "type": "bytes32"
        }
      ],
      "stateMutability": "view",
      "type": "function"
    },
    {
      "inputs": [
        {
          "internalType": "bytes32",
          "name": "courseHash",
          "type": "bytes32"
        }
      ],
      "name": "getCourseByHash",
      "outputs": [
        {
          "components": [
            {
              "internalType": "uint256",
              "name": "id",
              "type": "uint256"
            },
            {
              "internalType": "uint256",
              "name": "price",
              "type": "uint256"
            },
            {
              "internalType": "bytes32",
              "name": "proof",
              "type": "bytes32"
            },
            {
              "internalType": "address",
              "name": "owner",
              "type": "address"
            },
            {
              "internalType": "enum CourseMarketplace.State",
              "name": "state",
              "type": "uint8"
            }
          ],
          "internalType": "struct CourseMarketplace.Course",
          "name": "",
          "type": "tuple"
        }
      ],
      "stateMutability": "view",
      "type": "function"
    },
    {
      "inputs": [],
      "name": "getContractOwner",
      "outputs": [
        {
          "internalType": "address",
          "name": "",
          "type": "address"
        }
      ],
      "stateMutability": "view",
      "type": "function"
    }
  ],
  "bytecode": "0x608060405234801561001057600080fd5b506100203361002560201b60201c565b610069565b80600360006101000a81548173ffffffffffffffffffffffffffffffffffffffff021916908373ffffffffffffffffffffffffffffffffffffffff16021790555050565b610a94806100786000396000f3fe6080604052600436106100555760003560e01c8063442890d51461005a57806362e4e6ac1461008557806396cfda06146100c2578063d36d8a92146100ed578063d76821cb1461012a578063f2fde38b14610146575b600080fd5b34801561006657600080fd5b5061006f61016f565b60405161007c91906105ff565b60405180910390f35b34801561009157600080fd5b506100ac60048036038101906100a79190610655565b610199565b6040516100b99190610798565b60405180910390f35b3480156100ce57600080fd5b506100d7610274565b6040516100e491906107c2565b60405180910390f35b3480156100f957600080fd5b50610114600480360381019061010f9190610809565b61027e565b6040516101219190610845565b60405180910390f35b610144600480360381019061013f91906108b8565b61029b565b005b34801561015257600080fd5b5061016d60048036038101906101689190610924565b61043b565b005b6000600360009054906101000a900473ffffffffffffffffffffffffffffffffffffffff16905090565b6101a1610564565b6000808381526020019081526020016000206040518060a00160405290816000820154815260200160018201548152602001600282015481526020016003820160009054906101000a900473ffffffffffffffffffffffffffffffffffffffff1673ffffffffffffffffffffffffffffffffffffffff1673ffffffffffffffffffffffffffffffffffffffff1681526020016003820160149054906101000a900460ff166002811115610257576102566106b9565b5b6002811115610269576102686106b9565b5b815250509050919050565b6000600254905090565b600060016000838152602001908152602001600020549050919050565b600082336040516020016102b09291906109ba565b6040516020818303038152906040528051906020012090506102d1816104b3565b15610308576040517fb0fc2d9700000000000000000000000000000000000000000000000000000000815260040160405180910390fd5b60006002600081548092919061031d90610a15565b9190505590508160016000838152602001908152602001600020819055506040518060a001604052808281526020013481526020018481526020013373ffffffffffffffffffffffffffffffffffffffff16815260200160006002811115610388576103876106b9565b5b81525060008084815260200190815260200160002060008201518160000155602082015181600101556040820151816002015560608201518160030160006101000a81548173ffffffffffffffffffffffffffffffffffffffff021916908373ffffffffffffffffffffffffffffffffffffffff16021790555060808201518160030160146101000a81548160ff0219169083600281111561042d5761042c6106b9565b5b021790555090505050505050565b61044361016f565b73ffffffffffffffffffffffffffffffffffffffff163373ffffffffffffffffffffffffffffffffffffffff16146104a7576040517f5cd8319200000000000000000000000000000000000000000000000000000000815260040160405180910390fd5b6104b081610520565b50565b60003373ffffffffffffffffffffffffffffffffffffffff1660008084815260200190815260200160002060030160009054906101000a900473ffffffffffffffffffffffffffffffffffffffff1673ffffffffffffffffffffffffffffffffffffffff16149050919050565b80600360006101000a81548173ffffffffffffffffffffffffffffffffffffffff021916908373ffffffffffffffffffffffffffffffffffffffff16021790555050565b6040518060a00160405280600081526020016000815260200160008019168152602001600073ffffffffffffffffffffffffffffffffffffffff168152602001600060028111156105b8576105b76106b9565b5b81525090565b600073ffffffffffffffffffffffffffffffffffffffff82169050919050565b60006105e9826105be565b9050919050565b6105f9816105de565b82525050565b600060208201905061061460008301846105f0565b92915050565b600080fd5b6000819050919050565b6106328161061f565b811461063d57600080fd5b50565b60008135905061064f81610629565b92915050565b60006020828403121561066b5761066a61061a565b5b600061067984828501610640565b91505092915050565b6000819050919050565b61069581610682565b82525050565b6106a48161061f565b82525050565b6106b3816105de565b82525050565b7f4e487b7100000000000000000000000000000000000000000000000000000000600052602160045260246000fd5b600381106106f9576106f86106b9565b5b50565b600081905061070a826106e8565b919050565b600061071a826106fc565b9050919050565b61072a8161070f565b82525050565b60a082016000820151610746600085018261068c565b506020820151610759602085018261068c565b50604082015161076c604085018261069b565b50606082015161077f60608501826106aa565b5060808201516107926080850182610721565b50505050565b600060a0820190506107ad6000830184610730565b92915050565b6107bc81610682565b82525050565b60006020820190506107d760008301846107b3565b92915050565b6107e681610682565b81146107f157600080fd5b50565b600081359050610803816107dd565b92915050565b60006020828403121561081f5761081e61061a565b5b600061082d848285016107f4565b91505092915050565b61083f8161061f565b82525050565b600060208201905061085a6000830184610836565b92915050565b60007fffffffffffffffffffffffffffffffff0000000000000000000000000000000082169050919050565b61089581610860565b81146108a057600080fd5b50565b6000813590506108b28161088c565b92915050565b600080604083850312156108cf576108ce61061a565b5b60006108dd858286016108a3565b92505060206108ee85828601610640565b9150509250929050565b610901816105de565b811461090c57600080fd5b50565b60008135905061091e816108f8565b92915050565b60006020828403121561093a5761093961061a565b5b60006109488482850161090f565b91505092915050565b6000819050919050565b61096c61096782610860565b610951565b82525050565b60008160601b9050919050565b600061098a82610972565b9050919050565b600061099c8261097f565b9050919050565b6109b46109af826105de565b610991565b82525050565b60006109c6828561095b565b6010820191506109d682846109a3565b6014820191508190509392505050565b7f4e487b7100000000000000000000000000000000000000000000000000000000600052601160045260246000fd5b6000610a2082610682565b91507fffffffffffffffffffffffffffffffffffffffffffffffffffffffffffffffff821415610a5357610a526109e6565b5b60018201905091905056fea2646970667358221220b2dc0dad10330608429f3d6a7d98463134750b6e6f3f5d716799c7c7749b33d064736f6c634300080a0033",
  "immutableReferences": {},
  "source": "// SPDX-License-Identifier: MIT\npragma solidity >=0.4.22 <0.9.0;\n\ncontract CourseMarketplace{\n     enum State{\n         Purchased,\n         Activated,\n         DeaActivated\n     }\n\n     //struct is like obj in JS\n     struct Course{\n         uint id; //uinit= 32byte\n        uint price; //uinit= 32byte\n        bytes32 proof;//unique string of the course purchaser\n        address owner; //20 bytes\n        State state;//1 byte\n     }\n\n     //mapping of courseHash to Course data\n     mapping(bytes32 => Course) private ownedCourses;\n     //mapping of courseId to courseHash\n     mapping(uint => bytes32) private ownedCourseHashById;\n\n     uint private totalOwnedCourses ;\n\n     address payable owner;\n\n    /// Course already has an Owner\n    error CourseHasOwner();\n    /// Only owner can call\n    error CallerNotOwner();\n\n     constructor(){\n         //setting for the owner of the contract At Deploy Time\n         setContractOwner(msg.sender);\n     }\n\n     modifier onlyOwner{\n         if(msg.sender != getContractOwner()){\n             revert CallerNotOwner(); \n         }\n         _;\n     }\n\n     //abi and msg are two objects globally available in the Contract\n     function purchaseCourse(bytes16 courseId, bytes32 proof) external payable { \n         \n         bytes32 courseHash = keccak256(abi.encodePacked(courseId, msg.sender));\n         if(hasCourseOwnership(courseHash)){\n             revert CourseHasOwner();\n         }\n         uint id = totalOwnedCourses++;\n         ownedCourseHashById[id] = courseHash;\n         ownedCourses[courseHash] = Course({\n             id: id,\n             price: msg.value,\n             proof: proof,\n             owner: msg.sender,\n             state: State.Purchased\n         });\n     }\n     function transferOwnership(address newOwner) external onlyOwner {\n         setContractOwner(newOwner);\n     }\n     function getCourseCount() external view returns(uint) {\n         return totalOwnedCourses;\n     }\n     function getCourseHashByIndex(uint index) external view returns(bytes32) {\n         return ownedCourseHashById[index];\n     }\n     //whenever specify struct, specify memory\n     function getCourseByHash(bytes32 courseHash) external view returns(Course memory) {\n         return ownedCourses[courseHash];\n     }\n     function getContractOwner() view public returns(address) {\n         return owner;\n     }\n     function setContractOwner(address newOwner) private {\n         owner = payable(newOwner);\n     }\n     function hasCourseOwnership(bytes32 courseHash) private view returns(bool){\n         return ownedCourses[courseHash].owner == msg.sender;\n     }\n}\n\n//course id = 10 ni Ascii text\n         // 0x00000000000000000000000000003130 - couseId in hexaformad\n         // 0x5B38Da6a701c568545dCfcB03FcB875f56beddC4 //40bytes \n         //000000000000000000000000000031305B38Da6a701c568545dCfcB03FcB875f56beddC4 \n         //-> //0xc4eaa3558504e2baa2669001b43f359b8418b44a4477ff417b4b007d7cc86e37\n         //     0xc4eaa3558504e2baa2669001b43f359b8418b44a4477ff417b4b007d7cc86e37",
  "sourcePath": "/Users/qwertyexperts/QwertyProjects/tech-courses-marketplace-eth/contracts/CourseMarketplace.sol",
  "compiler": {
    "name": "solc",
    "version": "0.8.10+commit.fc410830.Emscripten.clang"
  },
  "schemaVersion": "3.4.3",
  "updatedAt": "2022-06-18T07:34:13.606Z",
  "devdoc": {
    "kind": "dev",
    "methods": {},
    "version": 1
  },
  "userdoc": {
    "errors": {
      "CallerNotOwner()": [
        {
          "notice": "Only owner can call"
        }
      ],
      "CourseHasOwner()": [
        {
          "notice": "Course already has an Owner"
        }
      ]
    },
    "kind": "user",
    "methods": {},
    "version": 1
  }
}